:020000040000FA
:040000001DEF00F000
:100008007482F6CF63F0F7CF64F0F8CF65F0F5CFE0
:1000180066F0F2B449EC0BF0F0B02AEC07F066C0D9
:10002800F5FF65C0F8FF64C0F7FF63C0F6FF749280
:060038001100ADEF08F01D
:1002000000202D20457374617420637269746963E2
:100210002064657465637461742E0D0A0055504442
:1002200041544554494D453A00494E495449414C81
:10023000495A453A004441544147524150483A00D6
:10024000444154414C4F47533A005345545F54493D
:100250004D453A004745545F475241504800464992
:100260004E4953480D0A0053454C4543540D0A006E
:100270004745545F4C4F4753002061206C65732005
:100280000052494748540D0A00444F574E0D0A008A
:100290004C4546540D0A0052455345540055500DE7
:0302A0000A000051
:1002A4003950D8A40CD03F50D8B404D0010E396EC4
:1002B400386A05D03B50D8B41200020EF8D739047E
:1002C400D8B4D2D0EED04250D8B407D0416A406AF4
:1002D400376A0F6A010E386E12003F6A396A1200DB
:1002E4000E0E40600ED04050010FD96EDA6A4150B4
:1002F4000E0DF35037244024DDEC0BF0DF6E402A62
:100304001200406A366A020E386E1200400E686EA1
:100314007AEC09F0030E386E120007500BEC0CF067
:10032400120008500BEC0CF012002D0E0BEC0CF02C
:10033400120009500BEC0CF012000A500BEC0CF0FC
:1003440012002D0E0BEC0CF012000B500BEC0CF009
:1003540012000C500BEC0CF012000D500BEC0CF0D6
:1003640012000E500BEC0CF0366A040E386E1200BC
:10037400362A3604000AD8B4D0D7010AD8B4D1D763
:10038400030AD8B4D2D7010AD8B4D3D7070AD8B449
:10039400D4D7010AD8B4D5D7030AD8B4D6D7010A1A
:1003A400D8B4D7D70F0AD8B4D8D7010AD8A4120022
:1003B400D8D7790E686E7AEC09F0050E386E120003
:1003C40001500BEC0CF0120002500BEC0CF012007C
:1003D4003A0E0BEC0CF0120003500BEC0CF0120074
:1003E40004500BEC0CF012003A0E0BEC0CF0120063
:1003F40005500BEC0CF0120006500BEC0CF0366AB6
:10040400060E386E1200362A3604000AD8B4D8D73D
:10041400010AD8B4D9D7030AD8B4DAD7010AD8B4B0
:10042400DBD7070AD8B4DCD7010AD8B4DDD7030A6E
:10043400D8B4DED7010AD8A41200DED7010E686E44
:100444007AEC09F0070E386E1200412A4250415CE2
:10045400D8A040D7080E386E12005E0E686E7AEC93
:1004640009F03F6A396A12003850000AD8B42BD711
:10047400010AD8B435D7030AD8B448D7010AD8B486
:1004840077D7070AD8B495D7010AD8B4BCD7030ADA
:10049400D8B4D4D7010AD8B4D8D70F0AD8A4120034
:1004A400DCD7020E3918D8A4120048D00E0E4264CC
:1004B40031D73D6A3C6A0ED70E0E3C6014D03D50D5
:1004C4000E0DF3503C240E0F6A6E3D500E0DF3508A
:1004D4003C246B6E6A50DDEC0BF0686E6B5020ECC4
:1004E4000AF03C2A12003C6A3D2A0D0E3D641200BB
:1004F4000E0E426E030E386E12000E0E3E6035D79D
:1005040042500E0DF3503E246C6E3E50990FD96E3E
:10051400DA6ADF50686E6C5020EC0AF03E2A120052
:10052400422A0F0E426402D00F0E426E42C068F09F
:10053400FF0E20EC0AF03E6A3B6A94D73850000A5A
:10054400D8B4B4D7010AD8B4B7D7020AD8B4D5D727
:10055400070AD8A41200E4D75050D8B4120096D099
:10056400535057EC0AF0010E456E12004E50000134
:10057400EC6FED6BE80EEC03F3CFEEF0F4CFEFF09D
:10058400ED03F350EF27030EEC03F350EF27EEC017
:10059400F0F0EFC0F1F0000EF1BFFF0EF26FF36F59
:1005A4005350FEEC07F0F051675CF1516858F2517A
:1005B4006958F3516A58D8A01200C250C30B0809F5
:1005C400C26EC282020E456E1200C2B21200C45044
:1005D400CE0F446E320E446404D0C30EC216456A74
:1005E40012004450E5EC0BF04D50445CD8B00FD0F1
:1005F400320EA9EC0BF0000EA0EC0BF0010E676EAE
:10060400000E686E000E97EC0BF0436AE6D74C5070
:10061400445CD8B00ED0320EA9EC0BF0320EA0EC34
:100624000BF0000E676E010E686E000E97EC0BF077
:10063400ECD74B50445CD8B00ED0640EA9EC0BF050
:10064400640EA0EC0BF0000E676E000E686E010ED7
:1006540097EC0BF0DAD7000EA9EC0BF0000EA0EC2F
:100664000BF0FFEC0BF04350D8A4B7D755C0E7F01C
:1006740054C0E8F057C0E9F058C0EAF059C0EBF0B4
:100684005650ECEC03F0010E436EA7D74550000A18
:10069400D8B466D7010AD8B469D7030AD8A412001B
:1006A40094D70D0E0001EB6FE951EB25D96EDA6A90
:1006B400010ED926DF50EA6FE951EB25D96EDA6ACB
:1006C400DF500A0DF350EA25F00F596E030EEB27A5
:1006D400E951EB25D96EDA6A010ED926DF50EA6FAB
:1006E400E951EB25D96EDA6ADF500A0DF350EA2599
:1006F400F00F586E030EEB27E951EB25D96EDA6A39
:10070400010ED926DF50EA6FE951EB25D96EDA6A7A
:10071400DF500A0DF350EA25F00F576E030EEB2756
:10072400E951EB25D96EDA6A010ED926DF50EA6F5A
:10073400E951EB25D96EDA6ADF500A0DF350EA2548
:10074400F00F566E030EEB27E951EB25D96EDA6AEA
:10075400010ED926DF50EA6FE951EB25D96EDA6A2A
:10076400DF500A0DF350EA25F00F556E020EEB2709
:10077400E9C067F0EB0E686E09EC05F04E6EE9C057
:1007840067F0EB0E686E09EC05F04D6EE9C067F09A
:10079400EB0E686E09EC05F04C6EE9C067F0EB0EE9
:1007A400686E09EC05F04B6EE9C067F0EB0E686EFD
:1007B40009EC05F04A6E58C0E7F059C0E8F057500C
:1007C4001CEC09F055C0E7F054C0E8F0565001ECB9
:1007D40009F012006F6E3B50D8A412000A0E676E27
:1007E4006F50C9EC08F0300F0001996F0A0E6B6E60
:1007F4006F50E4EC09F0300F00019A6F0A0E676E37
:10080400E751C9EC08F0300F00019B6F0A0E6B6EC4
:10081400E751E4EC09F0300F00019C6F0A0E676E9B
:10082400E851C9EC08F0300F00019D6F0A0E6B6EA1
:10083400E851E4EC09F0300F00019E6F0A0E676E78
:10084400E951C9EC08F0300F00019F6F0A0E6B6E7E
:10085400E951E4EC09F0300F0001A06F0A0E676E55
:10086400EA51C9EC08F0300F0001A16F0A0E6B6E5B
:10087400EA51E4EC09F0300F0001A26F320EA36FCD
:10088400300EA46F0A0E6B6E0A0E676EEB51C9EC44
:1008940008F0E4EC09F0300F0001A56F0A0E6B6E4E
:1008A400EB51E4EC09F0300F0001A66F010E3B6E32
:1008B4003A6A12004FD05B50FEEC07F06A506910A0
:1008C400681004E1140E675CD8A012005B5057EC6A
:1008D4000AF0462A1200DFEC0AF069EC0AF000097B
:1008E400D8B406D09D0E676E040E686ED0EC09F085
:1008F4009CEC0AF00009D8B406D0890E676E060E87
:10090400686ED0EC09F08BEC0AF00009D8B406D07C
:10091400900E676E060E686ED0EC09F07AEC0AF061
:100924000009D8B406D0810E676E070E686ED0EC4D
:1009340009F081B009D07304D8A406D0670E676E9D
:10094400080E686ED0EC09F0000E81B0010E736ED3
:10095400460612004650000AD8B4ADD7010AD8A4FE
:100964001200B9D72950D8B4120049D0D00E76EC71
:100974000BF0000E81EC0BF0D10E6BEC0BF0222A85
:1009840012002650D96EDA6A000E33EC0AF060ECDD
:100994000BF0DF6E2750D96EDA6A000E33EC0AF0E2
:1009A40060EC0BF0DF6E2850D96EDA6A000E33EC7F
:1009B4000AF060EC0BF0DF6E000E33EC0AF0255009
:1009C400D96EDA6A000E33EC0AF060EC0BF0DF6EDD
:1009D4002450D96EDA6A000E33EC0AF060EC0BF0A6
:1009E400DF6E2350D96EDA6A010E33EC0AF060EC44
:1009F4000BF0DF6ECDEC0BF0296A226A1200225054
:100A0400000AD8B4B3D7010AD8A41200BAD76B6AC3
:100A14006850D96EDA6ADF50696E67506924D96EFE
:100A2400DA6A240EDE18D8A417D06850D96EDA6AB0
:100A3400DF2A12D06850D96EDA6ADF50696E6750C7
:100A44006924D96EDA6ADF506A6E6B500A0DF3506E
:100A54006A24D00F6B6EE9D76850D96EDA6ADF501A
:100A6400696E67506924D96EDA6A2F0EDF640CD080
:100A74006850D96EDA6ADF50696E67506924D96E9E
:100A8400DA6A390EDF64D6D76850D96EDA6ADF5075
:100A9400696E67506924D96EDA6A240EDE18D8A408
:100AA40004D06850D96EDA6ADF2A6B5012002A50DB
:100AB400D8B412003FD01AC016F01BC017F064EC73
:100AC40009F0000E196E000E186E010E2B6E120046
:100AD400195017E1190E185CD8B013D00BEC0BF0B9
:100AE400706E350E686E7AEC09F07050D6EC07F033
:100AF4001A0E686E7AEC09F0F8EC09F0184A192A13
:100B04001200020E2B6E1200000E726E000E716E39
:100B140004D0F8EC09F0714A722A1650715C17502F
:100B24007258D8A0F6D75E0E686E7AEC09F02B6A7C
:100B34002A6A12002B50000AD8B4BDD7010AD8B4CF
:100B4400C7D7030AD8A41200DFD72D50D8A410D0D9
:100B540030B002D0899601D089862FB002D089980E
:100B640001D089882EB002D0899A01D0898A1200D6
:100B74008986899824D0899A5150FEEC07F06A50EE
:100B8400691006E1F50E675C010E6858D8A01200E2
:100B9400515057EC0AF02C2A1200898A5150FEEC6D
:100BA40007F06A50691006E1F50E675C010E68589B
:100BB400D8A01200515057EC0AF02C0612002C5009
:100BC400000AD8B4D8D7010AD8A41200E6D76DC059
:100BD40067F0290E686EADEC07F00009D8B402D0B6
:100BE400010E12006DC067F04A0E686EADEC07F09E
:100BF4000009D8B402D0020E12006DC067F0700E66
:100C0400686EADEC07F00009D8B402D0030E1200F0
:100C14006DC067F0540E686EADEC07F00009D8B4EF
:100C240002D0040E12006DC067F0970E686EADEC32
:100C340007F00009D8B402D0050E1200000E12000D
:100C4400D5EC0BF0A6EC09F019EC0BF037EC09F03D
:100C5400CFEC0AF0BBEC0BF03DEC0BF0FDEC0AF032
:100C6400BBEC09F005EC0CF094948B948BB404D099
:100C74000001F46BF42B02D00001F46BF447F44749
:100C84008B50F419FB0BF4198B6EFBEC06F05CEC47
:100C940004F0AEEC02F04EEC08F058EC07F0A7ECD0
:100CA40005F059EC05F052EC01F0B4EC04F0DED799
:100CB4006C6A68AE06D0676C681ED8B0682A010EEC
:100CC4006C6E6AAE04D0696C6A1ED8B06A2A695028
:100CD4006A10D8B418D0010E6B6E04D0D89069365F
:100CE4006A366B2A6AAEFAD76950675C6A506858EC
:100CF400D8A004D06950675E6A50685AD8906A32A6
:100D040069326B2EF1D76C50D8B404D0676C681E6E
:100D1400D8B0682A67C067F068C068F01200616ADA
:100D24005DAE06D05C6C5D1ED8B05D2A010E616EAE
:100D34005FAE04D05E6C5F1ED8B05F2A5E505F1059
:100D4400D8B418D0010E606E04D0D8905E365F36E9
:100D5400602A5FAEFAD75E505C5C5F505D58D8A0E5
:100D640004D05E505C5E5F505D5AD8905F325E3254
:100D7400602EF1D76150D8B404D05C6C5D1ED8B03D
:100D84005D2A5CC05CF05DC05DF01200090E0001DC
:100D9400EB6FE951D96EDA6A0A0ED926DF50EA6F91
:100DA400E951D96EDA6A090ED926DF500A0DF350DB
:100DB400EA25F00F566E030EEB27E951EB25D96EA9
:100DC400DA6A010ED926DF50EA6FE951EB25D96EB4
:100DD400DA6ADF500A0DF350EA25F00F556E020E61
:100DE400EB2755C0E7F054C0E8F0565001EC09F089
:100DF400120026D05A0E676E55EC0BF00009D8B4D9
:100E040012003F0E476013D04750A70FD96EDA6A1D
:100E14005AC0DFFF472A0A0E5A18D8A412004750B6
:100E2400A70FD96EDA6ADF6A010E486E1200476AAC
:100E34001200A70EEC6F83EC07F0476A4806120015
:100E44004850000AD8B4D6D7010AD8A41200F1D762
:100E5400F090555026EC08F01A0E5D6E90EC09F0F7
:100E64005050D8B41200560E5C6E550E5D6E540E82
:100E74005E6E570E5F6E580E606E590E616EEEEC2C
:100E84000AF05450D8A412001D0E5D6E90EC09F0C7
:100E9400565026EC08F03A0E11EC0CF0555026ECA6
:100EA40008F01A0E5D6E90EC09F0120025D0525035
:100EB400FEEC07F06750681069106A10D8B412008D
:100EC400525057EC0AF03550335CD8B002D08B80C6
:100ED40001D08B903450325CD8B002D08B8201D0D8
:100EE4008B92332A322A630E336401D0336A630E41
:100EF40032641200326A12003150000AD8A412007F
:100F0400D6D715D0ECC0E9F053EC03F0010E506EC7
:100F14001200ECC0E9F0C8EC06F01200F9EC0BF09A
:100F24001200F3EC0BF0120071EC08F01200ECC0AC
:100F34006DF0E9EC05F0010AD8B4E4D7030AD8B49B
:100F4400E8D7010AD8B4EAD7070AD8B4EAD7010A1D
:100F5400D8A41200E9D7000E6C6E000E6B6E16D08A
:100F640067506B24D96EDA6ADF50696E68506B245F
:100F74006A6E6AC0F6FF020EF76E0800F550691833
:100F8400D8B402D0000E12006B4A6C2A68506B244D
:100F9400696E69C0F6FF020EF76E0800F55000098D
:100FA400D8A4DED7010E12006F6E630E6F6413D0E7
:100FB400640E676E6F50C9EC08F0300F0BEC0CF048
:100FC4006FC067F0686A000E6A6E640E696E5AEC50
:100FD40006F067506F6E0A0E676E6F50C9EC08F02A
:100FE400300F0BEC0CF00A0E6B6E6F50E4EC09F052
:100FF400300F0BEC0CF012000001EB6FF29E10C0EE
:10100400E7F011C0E8F012C0E9F013C0EAF0F28E84
:101014000001EB51050DF350800FD96EDA6ADECF73
:101024006BF0DECF6CF0DECF6DF0DECF6EF06B5088
:10103400E75D676E6C50E859686E6D50E959696EEA
:101044006E50EA596A6E1200626E630E626413D0C7
:10105400640E5C6E6250E5EC08F0300F11EC0CF09D
:1010640062C05CF05D6A000E5F6E640E5E6E91ECB1
:1010740006F05C50626E0A0E5C6E6250E5EC08F09D
:10108400300F11EC0CF00A0E5C6E62500CEC0AF09E
:10109400300F11EC0CF012001AD01C50D8A403D05D
:1010A400C30EC21604D0C250C30B0409C26EC2825E
:1010B400010E1D6E1200C2B212001C50140FD96E24
:1010C400DA6AC4CFDFFF010E1C1A1D6A12001D501C
:1010D400000AD8B4E2D7010AD8A41200ECD7506AA7
:1010E400000EA9EC0BF0000EA0EC0BF0000E676EE6
:1010F400000E686E000E97EC0BF0ADEC0AF04EECAF
:1011040009F0596A586A576A566A556A546A4E6AA7
:101114004D6A4C6A4B6A4A6A1200696A05D0692AA8
:10112400050E6918D8B412006950050DF350840FE8
:10113400D96EDA6ADE04D8B4F2D76950050DF350DB
:10114400840FD96EDA6A010EDF6E6750D96EDA6ADF
:1011540069C0DFFF1200420EF66E180EF76E000E25
:10116400F86E0900F5CF73F000EE80F0670EEE6ABA
:10117400E806FDE100EE01F05B0EEE6AE806FDE133
:1011840074907492000EF86E000122EF06F0686EFF
:101194006A6A6750D8B415D0010E696E03D0D8902E
:1011A4006736692A67AEFBD7D8906A366750685CA1
:1011B400D8A003D06750685E6A80D8906732692EE1
:1011C400F3D76A5012005D6E5F6A5C50D8B415D0D4
:1011D400010E5E6E03D0D8905C365E2A5CAEFBD7FF
:1011E400D8905F365C505D5CD8A003D05C505D5EE7
:1011F4005F80D8905C325E2EF3D75F501200726E1F
:10120400D00E76EC0BF0000E81EC0BF00001E851EF
:10121400BEEC0AF081EC0BF00001E751BEEC0AF0E1
:1012240081EC0BF07250BEEC0AF081EC0BF0CDECCB
:101234000BF01200726ED00E76EC0BF0040E81EC03
:101244000BF07250BEEC0AF081EC0BF00001E75198
:10125400BEEC0AF081EC0BF00001E851BEEC0AF0A0
:1012640081EC0BF0CDEC0BF012005B0E676E8FEC93
:1012740008F0530E676E8FEC08F05B5057EC0AF0E1
:10128400535057EC0AF09380F19E010E736E506A2E
:10129400496A0B0EC16E120064EC09F0000E6A6E0E
:1012A400000E696E000E45EC0AF0F8EC09F0694A8C
:1012B4006A2A6A5004E1190E695CD8A0F3D764EC79
:1012C40009F012008A988A9A010E8CEC0BF08A8835
:1012D400010E8CEC0BF08A98010E8CEC0BF08A8AD0
:1012E400010E8CEC0BF0000E1B6E000E1A6E120039
:1012F4000BD068C0F6FF020EF76E0800F550B2EC92
:101304000BF00009D8A4682A68C0F6FF020EF76E35
:101314000800F5500009D8B41200EBD70BD05DC01B
:10132400F6FF020EF76E0800F550C4EC0BF000094E
:10133400D8A45D2A5DC0F6FF020EF76E0800F550D2
:101344000009D8B41200EBD7676A6750050DF35053
:10135400840FD96EDA6ADF6A672A040E6764F5D7E8
:10136400880ED56ED80ED76EF00ED66EF294F28A31
:101374001200956A8C6A939493969398939A949492
:101384008A988A848A868B848A8A000E1B6E000E51
:101394001A6E64EC09F04EEC09F012006A6A0DD082
:1013A400ACA2FED767506A24696E69C0F6FF020ECC
:1013B400F76E0800F5CFADFF6A2A68506A5CD8B0B2
:1013C4001200EED76C6E080E6D6E6E6AD8906C3497
:1013D4006E346E6ED8906C366B506E5CD8A002D0B2
:1013E4006B506E5E6D2EF2D76E5012008A98030E0B
:1013F4008CEC0BF08A88030E8CEC0BF08A981A4A5A
:101404001B2A1B5004E1190E1A5CD8A0120064ECCC
:1014140009F012005D6E080E5E6E5F6AD8905D344E
:101424005F345F6ED8905D365C505F5CD8A002D0AC
:101434005C505F5E5E2EF2D75F501200696E69C029
:10144400A9FF68C0A8FFA69EA69CA684F29E550E7E
:10145400A76EAA0EA76EA682F28EA6B2FED7A69497
:101464001200676EC586C7A0FED7C9CF68F0675063
:10147400D8A403D01CEC0CF002D017EC0CF0ECEC6C
:101484000BF068501200686E956A010E8CEC0BF03C
:1014940068C08CFF8A848B948A96010E8CEC0BF0C6
:1014A4008A868B8495688C6A1200676EF29E6750F8
:1014B400050DF350800FD96EDA6A10C0DEFF11C03B
:1014C400DEFF12C0DEFF13C0DEFFF28E1200320E0A
:1014D40014640CD0C80E146009D0320E156006D006
:1014E4001F50D8B403D01F6A010E1200000E120060
:1014F400320E15640CD0C80E156009D0C80E1464E1
:1015040006D01F50D8B403D01F6A010E1200000E7B
:101514001200320E15640CD0C80E156009D0320EBC
:10152400146006D01F50D8B403D01F6A010E1200F5
:10153400000E1200320E14640CD0C80E146009D0D0
:10154400C80E156406D01F50D8B403D01F6A010E0C
:101554001200000E12006A6AFF0E686E6A5020ECD8
:101564000AF06A2AD10E6A64F7D7426A000E686EDE
:10157400FF0E20EC0AF01200716E0A0E6B6E7150B1
:10158400E4EC09F06F6E0A0E676E7150C9EC08F056
:10159400706E7038F00B6F101200928092829284F9
:1015A400C30EC216C280C09EC094C082C080010E09
:1015B4001F6E1FC020F01E6A1200320E1464120047
:1015C400C80E14601200320E15641200C80E1560A5
:1015D4001200010E1F6E12005CC028F05DC027F0DF
:1015E4005EC026F05FC025F060C024F061C023F027
:1015F400010E296E120092969298929A8996899871
:10160400899A510E676E8FEC08F0515057EC0AF02E
:10161400120095688C6A8A868B948A94050E8CECE9
:101624000BF083CF68F08A848B8468501200948C0A
:10163400948E510EAF6EB06AB886AC84AC98AB8E03
:10164400AC8AAB881200D00E76EC0BF00E0E81EC57
:101654000BF0000E81EC0BF0CDEC0BF01200948635
:101664009488800EC76E280EC66EC56A630EC86E57
:101674009D969E961200949094928B908B92520E0B
:10168400676E8FEC08F0525057EC0AF01200D80E37
:10169400D76EF00ED66EF294010E1026000E1122B3
:1016A4001222132212009EAA07D06750D96EDA6A5A
:1016B400AECFDFFF010E1200000E1200686E68C08C
:1016C40067F00F0E671668380F0B0A0DF350672486
:1016D4001200686EC582C5B2FED79E96C7A61200D8
:1016E400685081EC0BF01200686EC580C5B0FED75F
:1016F4009E96C7A61200685081EC0BF01200676E2C
:1017040067C0C9FFECEC0BF0C5AC02D0010E1200AF
:10171400020E1200676E06D00000000000000000F8
:1017240000000000672EF8D71200696E69C030F01F
:1017340067C02FF068C02EF02D6A1200676E640E29
:10174400676402D0640E676E67C034F01200676E7F
:10175400640E676402D0640E676E67C035F01200D1
:10176400676EACA204D067C0ADFF010E1200000E7C
:101774001200FF0EDDEC0BF0426E0F0E42641200FD
:10178400426A12005C6EACA204D05CC0ADFF010ED4
:101794001200000E1200ECEC0BF0C584C5B4FED7A9
:1017A4009E96C7501200D08EF28CF28E9382F090E7
:1017B400F086F19A1200676E67C0A9FFA69EA69CE8
:1017C400A680A8501200696E695045EC0AF0F8EC46
:1017D40009F01200A1B6FED7C7A0C7B4FDD79E96E4
:1017E40012002A50D8A41200010E2A6E12003F5093
:1017F400D8A41200010E3F6E1200010E2D6E51503E
:1018040057EC0AF0120031EC0BF025EC0BF0296ACE
:101814001200676EACA2FED767C0ADFF12005C6E0B
:10182400ACA2FED75CC0ADFF1200C58AC588C5A8AE
:0F1834001200FDD7C59AC588C5A81200FDD701BF
:020000040020DA
:08000000FFFFFFFFFFFFFFFF00
:020000040030CA
:0E000000FF06191EFF8181FF03C003E00340CD
:00000001FF
